{
  "contractName": "SimpleBlog",
  "abi": [
    {
      "inputs": [],
      "stateMutability": "nonpayable",
      "type": "constructor"
    },
    {
      "inputs": [],
      "name": "owner",
      "outputs": [
        {
          "internalType": "address",
          "name": "",
          "type": "address"
        }
      ],
      "stateMutability": "view",
      "type": "function",
      "constant": true
    },
    {
      "inputs": [
        {
          "internalType": "uint256",
          "name": "",
          "type": "uint256"
        }
      ],
      "name": "posts",
      "outputs": [
        {
          "internalType": "string",
          "name": "title",
          "type": "string"
        },
        {
          "internalType": "string",
          "name": "content",
          "type": "string"
        }
      ],
      "stateMutability": "view",
      "type": "function",
      "constant": true
    },
    {
      "inputs": [
        {
          "internalType": "string",
          "name": "title",
          "type": "string"
        },
        {
          "internalType": "string",
          "name": "content",
          "type": "string"
        }
      ],
      "name": "createPost",
      "outputs": [],
      "stateMutability": "nonpayable",
      "type": "function"
    },
    {
      "inputs": [],
      "name": "getPostCount",
      "outputs": [
        {
          "internalType": "uint256",
          "name": "",
          "type": "uint256"
        }
      ],
      "stateMutability": "view",
      "type": "function",
      "constant": true
    },
    {
      "inputs": [
        {
          "internalType": "uint256",
          "name": "index",
          "type": "uint256"
        }
      ],
      "name": "getPost",
      "outputs": [
        {
          "internalType": "string",
          "name": "title",
          "type": "string"
        },
        {
          "internalType": "string",
          "name": "content",
          "type": "string"
        }
      ],
      "stateMutability": "view",
      "type": "function",
      "constant": true
    }
  ],
  "bytecode": "0x608060405234801561001057600080fd5b5033600160006101000a81548173ffffffffffffffffffffffffffffffffffffffff021916908373ffffffffffffffffffffffffffffffffffffffff160217905550610a7d806100616000396000f3fe608060405234801561001057600080fd5b50600436106100575760003560e01c80630b1e7f831461005c578063392338f51461008d57806340731c24146100a95780638da5cb5b146100da578063bcc95407146100f8575b600080fd5b610076600480360381019061007191906106e7565b610116565b604051610084929190610802565b60405180910390f35b6100a760048036038101906100a2919061067b565b61025a565b005b6100c360048036038101906100be91906106e7565b61036a565b6040516100d1929190610802565b60405180910390f35b6100e2610529565b6040516100ef91906107e7565b60405180910390f35b61010061054f565b60405161010d9190610879565b60405180910390f35b6000818154811061012657600080fd5b90600052602060002090600202016000915090508060000180546101499061098f565b80601f01602080910402602001604051908101604052809291908181526020018280546101759061098f565b80156101c25780601f10610197576101008083540402835291602001916101c2565b820191906000526020600020905b8154815290600101906020018083116101a557829003601f168201915b5050505050908060010180546101d79061098f565b80601f01602080910402602001604051908101604052809291908181526020018280546102039061098f565b80156102505780601f1061022557610100808354040283529160200191610250565b820191906000526020600020905b81548152906001019060200180831161023357829003601f168201915b5050505050905082565b600160009054906101000a900473ffffffffffffffffffffffffffffffffffffffff1673ffffffffffffffffffffffffffffffffffffffff163373ffffffffffffffffffffffffffffffffffffffff16146102ea576040517f08c379a00000000000000000000000000000000000000000000000000000000081526004016102e190610839565b60405180910390fd5b60006040518060400160405280848152602001838152509080600181540180825580915050600190039060005260206000209060020201600090919091909150600082015181600001908051906020019061034692919061055b565b50602082015181600101908051906020019061036392919061055b565b5050505050565b60608060008054905083106103b4576040517f08c379a00000000000000000000000000000000000000000000000000000000081526004016103ab90610859565b60405180910390fd5b60008084815481106103ef577f4e487b7100000000000000000000000000000000000000000000000000000000600052603260045260246000fd5b9060005260206000209060020201905080600001816001018180546104139061098f565b80601f016020809104026020016040519081016040528092919081815260200182805461043f9061098f565b801561048c5780601f106104615761010080835404028352916020019161048c565b820191906000526020600020905b81548152906001019060200180831161046f57829003601f168201915b5050505050915080805461049f9061098f565b80601f01602080910402602001604051908101604052809291908181526020018280546104cb9061098f565b80156105185780601f106104ed57610100808354040283529160200191610518565b820191906000526020600020905b8154815290600101906020018083116104fb57829003601f168201915b505050505090509250925050915091565b600160009054906101000a900473ffffffffffffffffffffffffffffffffffffffff1681565b60008080549050905090565b8280546105679061098f565b90600052602060002090601f01602090048101928261058957600085556105d0565b82601f106105a257805160ff19168380011785556105d0565b828001600101855582156105d0579182015b828111156105cf5782518255916020019190600101906105b4565b5b5090506105dd91906105e1565b5090565b5b808211156105fa5760008160009055506001016105e2565b5090565b600061061161060c846108c5565b610894565b90508281526020810184848401111561062957600080fd5b61063484828561094d565b509392505050565b600082601f83011261064d57600080fd5b813561065d8482602086016105fe565b91505092915050565b60008135905061067581610a30565b92915050565b6000806040838503121561068e57600080fd5b600083013567ffffffffffffffff8111156106a857600080fd5b6106b48582860161063c565b925050602083013567ffffffffffffffff8111156106d157600080fd5b6106dd8582860161063c565b9150509250929050565b6000602082840312156106f957600080fd5b600061070784828501610666565b91505092915050565b61071981610911565b82525050565b600061072a826108f5565b6107348185610900565b935061074481856020860161095c565b61074d81610a1f565b840191505092915050565b6000610765601f83610900565b91507f4f6e6c7920746865206f776e65722063616e2063726561746520706f737473006000830152602082019050919050565b60006107a5601383610900565b91507f506f737420646f6573206e6f74206578697374000000000000000000000000006000830152602082019050919050565b6107e181610943565b82525050565b60006020820190506107fc6000830184610710565b92915050565b6000604082019050818103600083015261081c818561071f565b90508181036020830152610830818461071f565b90509392505050565b6000602082019050818103600083015261085281610758565b9050919050565b6000602082019050818103600083015261087281610798565b9050919050565b600060208201905061088e60008301846107d8565b92915050565b6000604051905081810181811067ffffffffffffffff821117156108bb576108ba6109f0565b5b8060405250919050565b600067ffffffffffffffff8211156108e0576108df6109f0565b5b601f19601f8301169050602081019050919050565b600081519050919050565b600082825260208201905092915050565b600061091c82610923565b9050919050565b600073ffffffffffffffffffffffffffffffffffffffff82169050919050565b6000819050919050565b82818337600083830152505050565b60005b8381101561097a57808201518184015260208101905061095f565b83811115610989576000848401525b50505050565b600060028204905060018216806109a757607f821691505b602082108114156109bb576109ba6109c1565b5b50919050565b7f4e487b7100000000000000000000000000000000000000000000000000000000600052602260045260246000fd5b7f4e487b7100000000000000000000000000000000000000000000000000000000600052604160045260246000fd5b6000601f19601f8301169050919050565b610a3981610943565b8114610a4457600080fd5b5056fea2646970667358221220e89ac3073c7a4255c5a31b56175778e1a84184f937d54242d9c1ff0c7a44254d64736f6c63430008000033",
  "immutableReferences": {},
  "source": "// SPDX-License-Identifier: MIT\npragma solidity >=0.5.22 <0.8.21;\n\ncontract SimpleBlog {\n    struct Post {\n        string title;\n        string content;\n    }\n\n    Post[] public posts;\n    address public owner;\n\n    constructor() {\n        owner = msg.sender;\n    }\n\n    function createPost(string memory title, string memory content) public {\n        require(msg.sender == owner, \"Only the owner can create posts\");\n        posts.push(Post(title, content));\n    }\n\n    function getPostCount() public view returns (uint256) {\n        return posts.length;\n    }\n\n    function getPost(uint256 index) public view returns (string memory title, string memory content) {\n        require(index < posts.length, \"Post does not exist\");\n        Post storage post = posts[index];\n        return (post.title, post.content);\n    }\n}\n\n",
  "sourcePath": "/Users/demenko/Desktop/BlogDAPP/contracts/SimpleBlog.sol",
  "compiler": {
    "name": "solc",
    "version": "0.8.0+commit.c7dfd78e.Emscripten.clang"
  },
  "schemaVersion": "3.4.16",
  "updatedAt": "2023-09-22T22:33:46.285Z",
  "networkType": "ethereum",
  "devdoc": {
    "kind": "dev",
    "methods": {},
    "version": 1
  },
  "userdoc": {
    "kind": "user",
    "methods": {},
    "version": 1
  }
}